{
  "_format": "hh-sol-artifact-1",
  "contractName": "Factory",
  "sourceName": "contracts/LeBonCoin.sol",
  "abi": [
    {
      "inputs": [],
      "stateMutability": "nonpayable",
      "type": "constructor"
    },
    {
      "anonymous": false,
      "inputs": [
        {
          "indexed": true,
          "internalType": "address",
          "name": "owner",
          "type": "address"
        },
        {
          "indexed": true,
          "internalType": "address",
          "name": "shop",
          "type": "address"
        }
      ],
      "name": "ShopCreated",
      "type": "event"
    },
    {
      "inputs": [],
      "name": "createShop",
      "outputs": [],
      "stateMutability": "nonpayable",
      "type": "function"
    },
    {
      "inputs": [],
      "name": "getOwner",
      "outputs": [
        {
          "internalType": "address",
          "name": "",
          "type": "address"
        }
      ],
      "stateMutability": "view",
      "type": "function"
    },
    {
      "inputs": [
        {
          "internalType": "address",
          "name": "_owner",
          "type": "address"
        }
      ],
      "name": "getShop",
      "outputs": [
        {
          "internalType": "address",
          "name": "",
          "type": "address"
        }
      ],
      "stateMutability": "view",
      "type": "function"
    },
    {
      "inputs": [
        {
          "internalType": "address",
          "name": "",
          "type": "address"
        }
      ],
      "name": "ownerShop",
      "outputs": [
        {
          "internalType": "address",
          "name": "",
          "type": "address"
        }
      ],
      "stateMutability": "view",
      "type": "function"
    }
  ],
  "bytecode": "0x608060405234801561001057600080fd5b50336000806101000a81548173ffffffffffffffffffffffffffffffffffffffff021916908373ffffffffffffffffffffffffffffffffffffffff160217905550612aa3806100606000396000f3fe608060405234801561001057600080fd5b506004361061004c5760003560e01c80630e479dc71461005157806358db268e14610081578063893d20e8146100b1578063cedc3b25146100cf575b600080fd5b61006b600480360381019061006691906103ef565b6100d9565b604051610078919061042b565b60405180910390f35b61009b600480360381019061009691906103ef565b610142565b6040516100a8919061042b565b60405180910390f35b6100b9610175565b6040516100c6919061042b565b60405180910390f35b6100d761019e565b005b6000600160008373ffffffffffffffffffffffffffffffffffffffff1673ffffffffffffffffffffffffffffffffffffffff16815260200190815260200160002060009054906101000a900473ffffffffffffffffffffffffffffffffffffffff169050919050565b60016020528060005260406000206000915054906101000a900473ffffffffffffffffffffffffffffffffffffffff1681565b60008060009054906101000a900473ffffffffffffffffffffffffffffffffffffffff16905090565b600073ffffffffffffffffffffffffffffffffffffffff16600160003373ffffffffffffffffffffffffffffffffffffffff1673ffffffffffffffffffffffffffffffffffffffff16815260200190815260200160002060009054906101000a900473ffffffffffffffffffffffffffffffffffffffff1673ffffffffffffffffffffffffffffffffffffffff161461026c576040517f08c379a0000000000000000000000000000000000000000000000000000000008152600401610263906104a3565b60405180910390fd5b60003360405161027b9061037f565b610285919061042b565b604051809103906000f0801580156102a1573d6000803e3d6000fd5b50905080600160003373ffffffffffffffffffffffffffffffffffffffff1673ffffffffffffffffffffffffffffffffffffffff16815260200190815260200160002060006101000a81548173ffffffffffffffffffffffffffffffffffffffff021916908373ffffffffffffffffffffffffffffffffffffffff1602179055508073ffffffffffffffffffffffffffffffffffffffff163373ffffffffffffffffffffffffffffffffffffffff167fd90ca7d5402ae67c6f355f765a54ee238b50df485938d8be0c42d43a67bd1c2060405160405180910390a350565b6125aa806104c483390190565b600080fd5b600073ffffffffffffffffffffffffffffffffffffffff82169050919050565b60006103bc82610391565b9050919050565b6103cc816103b1565b81146103d757600080fd5b50565b6000813590506103e9816103c3565b92915050565b6000602082840312156104055761040461038c565b5b6000610413848285016103da565b91505092915050565b610425816103b1565b82525050565b6000602082019050610440600083018461041c565b92915050565b600082825260208201905092915050565b7f596f752063616e206f6e6c792068617665206f6e652073686f70000000000000600082015250565b600061048d601a83610446565b915061049882610457565b602082019050919050565b600060208201905081810360008301526104bc81610480565b905091905056fe608060405260008060146101000a81548161ffff021916908361ffff16021790555060008060166101000a81548161ffff021916908361ffff1602179055503480156200004b57600080fd5b50604051620025aa380380620025aa833981810160405281019062000071919062000122565b806000806101000a81548173ffffffffffffffffffffffffffffffffffffffff021916908373ffffffffffffffffffffffffffffffffffffffff1602179055505062000154565b600080fd5b600073ffffffffffffffffffffffffffffffffffffffff82169050919050565b6000620000ea82620000bd565b9050919050565b620000fc81620000dd565b81146200010857600080fd5b50565b6000815190506200011c81620000f1565b92915050565b6000602082840312156200013b576200013a620000b8565b5b60006200014b848285016200010b565b91505092915050565b61244680620001646000396000f3fe60806040526004361061011f5760003560e01c80639078e399116100a0578063d0e30db011610064578063d0e30db0146103cd578063d2c272d1146103d7578063db1b318114610402578063e00866231461041e578063f0a123171461045f5761011f565b80639078e399146102fc57806391f7cfb914610327578063a204886e14610352578063a21132a41461037b578063bf735b13146103a45761011f565b80636b4943a7116100e75780636b4943a7146102275780636f9fb98a1461025257806378c3681c1461027d578063809dab6a146102a6578063893d20e8146102d15761011f565b8063025ee700146101245780630c3def7f1461016457806318d4baae146101a45780633ccfd60b146101e5578063590791f2146101fc575b600080fd5b34801561013057600080fd5b5061014b60048036038101906101469190611a72565b61048a565b60405161015b9493929190611afb565b60405180910390f35b34801561017057600080fd5b5061018b60048036038101906101869190611a72565b6104d5565b60405161019b9493929190611afb565b60405180910390f35b3480156101b057600080fd5b506101cb60048036038101906101c69190611a72565b6105db565b6040516101dc959493929190611b81565b60405180910390f35b3480156101f157600080fd5b506101fa6107a6565b005b34801561020857600080fd5b50610211610982565b60405161021e9190611bd4565b60405180910390f35b34801561023357600080fd5b5061023c610a50565b6040516102499190611bd4565b60405180910390f35b34801561025e57600080fd5b50610267610a56565b6040516102749190611bd4565b60405180910390f35b34801561028957600080fd5b506102a4600480360381019061029f9190611c1b565b610aed565b005b3480156102b257600080fd5b506102bb610cfd565b6040516102c89190611bd4565b60405180910390f35b3480156102dd57600080fd5b506102e6610d96565b6040516102f39190611c5b565b60405180910390f35b34801561030857600080fd5b50610311610dbf565b60405161031e9190611bd4565b60405180910390f35b34801561033357600080fd5b5061033c610e58565b6040516103499190611bd4565b60405180910390f35b34801561035e57600080fd5b5061037960048036038101906103749190611a72565b610e5e565b005b34801561038757600080fd5b506103a2600480360381019061039d9190611ca2565b611093565b005b3480156103b057600080fd5b506103cb60048036038101906103c69190611d0e565b611444565b005b6103d561165b565b005b3480156103e357600080fd5b506103ec61165d565b6040516103f99190611d4e565b60405180910390f35b61041c60048036038101906104179190611a72565b611671565b005b34801561042a57600080fd5b5061044560048036038101906104409190611a72565b6119a1565b604051610456959493929190611d69565b60405180910390f35b34801561046b57600080fd5b50610474611a1f565b6040516104819190611d4e565b60405180910390f35b60036020528060005260406000206000915090508060000154908060010154908060020160009054906101000a900460ff16908060020160019054906101000a900461ffff16905084565b600080600080846000600360008361ffff1661ffff168152602001908152602001600020600101541161053d576040517f08c379a000000000000000000000000000000000000000000000000000000000815260040161053490611e19565b60405180910390fd5b6000600360008861ffff1661ffff16815260200190815260200160002060405180608001604052908160008201548152602001600182015481526020016002820160009054906101000a900460ff161515151581526020016002820160019054906101000a900461ffff1661ffff1661ffff168152505090508060000151816020015182604001518360600151955095509550955050509193509193565b600080600080600085600073ffffffffffffffffffffffffffffffffffffffff16600460008361ffff1661ffff16815260200190815260200160002060020160009054906101000a900473ffffffffffffffffffffffffffffffffffffffff1673ffffffffffffffffffffffffffffffffffffffff1603610691576040517f08c379a000000000000000000000000000000000000000000000000000000000815260040161068890611e85565b60405180910390fd5b6000600460008961ffff1661ffff1681526020019081526020016000206040518060a00160405290816000820160009054906101000a900461ffff1661ffff1661ffff168152602001600182015481526020016002820160009054906101000a900473ffffffffffffffffffffffffffffffffffffffff1673ffffffffffffffffffffffffffffffffffffffff1673ffffffffffffffffffffffffffffffffffffffff1681526020016002820160149054906101000a900460ff161515151581526020016002820160159054906101000a900460ff1615151515815250509050806000015181602001518260400151836060015184608001518461ffff16945096509650965096509650505091939590929450565b60008054906101000a900473ffffffffffffffffffffffffffffffffffffffff1673ffffffffffffffffffffffffffffffffffffffff163373ffffffffffffffffffffffffffffffffffffffff1614610834576040517f08c379a000000000000000000000000000000000000000000000000000000000815260040161082b90611f17565b60405180910390fd5b6000600254905060008060009054906101000a900473ffffffffffffffffffffffffffffffffffffffff1673ffffffffffffffffffffffffffffffffffffffff168260405161088290611f68565b60006040518083038185875af1925050503d80600081146108bf576040519150601f19603f3d011682016040523d82523d6000602084013e6108c4565b606091505b5050905080610908576040517f08c379a00000000000000000000000000000000000000000000000000000000081526004016108ff90611fc9565b60405180910390fd5b600060028190555060008054906101000a900473ffffffffffffffffffffffffffffffffffffffff1673ffffffffffffffffffffffffffffffffffffffff167f884edad9ce6fa2440d8a54cc123490eb96d2768479d49ff9c7366125a9424364836040516109769190611bd4565b60405180910390a25050565b60008060009054906101000a900473ffffffffffffffffffffffffffffffffffffffff1673ffffffffffffffffffffffffffffffffffffffff163373ffffffffffffffffffffffffffffffffffffffff1614610a13576040517f08c379a0000000000000000000000000000000000000000000000000000000008152600401610a0a90611f17565b60405180910390fd5b60008054906101000a900473ffffffffffffffffffffffffffffffffffffffff1673ffffffffffffffffffffffffffffffffffffffff1631905090565b60015481565b60008060009054906101000a900473ffffffffffffffffffffffffffffffffffffffff1673ffffffffffffffffffffffffffffffffffffffff163373ffffffffffffffffffffffffffffffffffffffff1614610ae7576040517f08c379a0000000000000000000000000000000000000000000000000000000008152600401610ade90611f17565b60405180910390fd5b47905090565b81600073ffffffffffffffffffffffffffffffffffffffff16600460008361ffff1661ffff16815260200190815260200160002060020160009054906101000a900473ffffffffffffffffffffffffffffffffffffffff1673ffffffffffffffffffffffffffffffffffffffff1603610b9b576040517f08c379a0000000000000000000000000000000000000000000000000000000008152600401610b9290611e85565b60405180910390fd5b60008054906101000a900473ffffffffffffffffffffffffffffffffffffffff1673ffffffffffffffffffffffffffffffffffffffff163373ffffffffffffffffffffffffffffffffffffffff1614610c29576040517f08c379a0000000000000000000000000000000000000000000000000000000008152600401610c2090611f17565b60405180910390fd5b6001151582151503610cf857600460008461ffff1661ffff16815260200190815260200160002060020160009054906101000a900473ffffffffffffffffffffffffffffffffffffffff1673ffffffffffffffffffffffffffffffffffffffff167f4d4df813727c96a4d9463bf3c4d6a55a394a64ba712b1f506909d2bf4a9146f884604051610cb99190611d4e565b60405180910390a281600460008561ffff1661ffff16815260200190815260200160002060020160146101000a81548160ff0219169083151502179055505b505050565b60008060009054906101000a900473ffffffffffffffffffffffffffffffffffffffff1673ffffffffffffffffffffffffffffffffffffffff163373ffffffffffffffffffffffffffffffffffffffff1614610d8e576040517f08c379a0000000000000000000000000000000000000000000000000000000008152600401610d8590611f17565b60405180910390fd5b600254905090565b60008060009054906101000a900473ffffffffffffffffffffffffffffffffffffffff16905090565b60008060009054906101000a900473ffffffffffffffffffffffffffffffffffffffff1673ffffffffffffffffffffffffffffffffffffffff163373ffffffffffffffffffffffffffffffffffffffff1614610e50576040517f08c379a0000000000000000000000000000000000000000000000000000000008152600401610e4790611f17565b60405180910390fd5b600154905090565b60025481565b803373ffffffffffffffffffffffffffffffffffffffff16600460008361ffff1661ffff16815260200190815260200160002060020160009054906101000a900473ffffffffffffffffffffffffffffffffffffffff1673ffffffffffffffffffffffffffffffffffffffff1614610f0b576040517f08c379a0000000000000000000000000000000000000000000000000000000008152600401610f0290612035565b60405180910390fd5b60011515600360008461ffff1661ffff16815260200190815260200160002060020160009054906101000a900460ff16151514610f7d576040517f08c379a0000000000000000000000000000000000000000000000000000000008152600401610f74906120a1565b60405180910390fd5b6001600460008461ffff1661ffff16815260200190815260200160002060020160156101000a81548160ff021916908315150217905550600460008361ffff1661ffff1681526020019081526020016000206001015460016000828254610fe491906120f0565b92505081905550600460008361ffff1661ffff168152602001908152602001600020600101546002600082825461101b9190612124565b92505081905550600460008361ffff1661ffff168152602001908152602001600020600101543373ffffffffffffffffffffffffffffffffffffffff167f9e7f3ac9856a954ae44f45fa55acf9e7fa0148c4b1190e209130b7f17e55d005846040516110879190611d4e565b60405180910390a35050565b60008054906101000a900473ffffffffffffffffffffffffffffffffffffffff1673ffffffffffffffffffffffffffffffffffffffff163373ffffffffffffffffffffffffffffffffffffffff1603611121576040517f08c379a0000000000000000000000000000000000000000000000000000000008152600401611118906121ca565b60405180910390fd5b816000600360008361ffff1661ffff1681526020019081526020016000206001015411611183576040517f08c379a000000000000000000000000000000000000000000000000000000000815260040161117a90611e19565b60405180910390fd5b8260001515600360008361ffff1661ffff16815260200190815260200160002060020160009054906101000a900460ff161515146111f6576040517f08c379a00000000000000000000000000000000000000000000000000000000081526004016111ed90612236565b60405180910390fd5b826000811161123a576040517f08c379a0000000000000000000000000000000000000000000000000000000008152600401611231906122a2565b60405180910390fd5b6000601681819054906101000a900461ffff168092919061125a906122c2565b91906101000a81548161ffff021916908361ffff160217905550506040518060a001604052808661ffff1681526020018581526020013373ffffffffffffffffffffffffffffffffffffffff16815260200160001515815260200160001515815250600460008060169054906101000a900461ffff1661ffff1661ffff16815260200190815260200160002060008201518160000160006101000a81548161ffff021916908361ffff1602179055506020820151816001015560408201518160020160006101000a81548173ffffffffffffffffffffffffffffffffffffffff021916908373ffffffffffffffffffffffffffffffffffffffff16021790555060608201518160020160146101000a81548160ff02191690831515021790555060808201518160020160156101000a81548160ff021916908315150217905550905050600360008661ffff1661ffff168152602001908152602001600020600201600181819054906101000a900461ffff16809291906113d9906122c2565b91906101000a81548161ffff021916908361ffff16021790555050838561ffff163373ffffffffffffffffffffffffffffffffffffffff167fa9d9407c68bf591879198d57118587b1e56ce4baad986fcb6c92d745c354e8c060405160405180910390a45050505050565b60008054906101000a900473ffffffffffffffffffffffffffffffffffffffff1673ffffffffffffffffffffffffffffffffffffffff163373ffffffffffffffffffffffffffffffffffffffff16146114d2576040517f08c379a00000000000000000000000000000000000000000000000000000000081526004016114c990611f17565b60405180910390fd5b8060008111611516576040517f08c379a000000000000000000000000000000000000000000000000000000000815260040161150d906122a2565b60405180910390fd5b6000601481819054906101000a900461ffff1680929190611536906122c2565b91906101000a81548161ffff021916908361ffff160217905550506040518060800160405280848152602001838152602001600015158152602001600061ffff16815250600360008060149054906101000a900461ffff1661ffff1661ffff168152602001908152602001600020600082015181600001556020820151816001015560408201518160020160006101000a81548160ff02191690831515021790555060608201518160020160016101000a81548161ffff021916908361ffff160217905550905050600060149054906101000a900461ffff1661ffff163373ffffffffffffffffffffffffffffffffffffffff167f31cf60878d1437dd30f9aaac2b138e96954a45219c79d31be796d6a2e223ab9060405160405180910390a3505050565b565b600060169054906101000a900461ffff1681565b80600073ffffffffffffffffffffffffffffffffffffffff16600460008361ffff1661ffff16815260200190815260200160002060020160009054906101000a900473ffffffffffffffffffffffffffffffffffffffff1673ffffffffffffffffffffffffffffffffffffffff160361171f576040517f08c379a000000000000000000000000000000000000000000000000000000000815260040161171690611e85565b60405180910390fd5b813373ffffffffffffffffffffffffffffffffffffffff16600460008361ffff1661ffff16815260200190815260200160002060020160009054906101000a900473ffffffffffffffffffffffffffffffffffffffff1673ffffffffffffffffffffffffffffffffffffffff16146117cc576040517f08c379a00000000000000000000000000000000000000000000000000000000081526004016117c390612035565b60405180910390fd5b8260011515600460008361ffff1661ffff16815260200190815260200160002060020160149054906101000a900460ff1615151461183f576040517f08c379a00000000000000000000000000000000000000000000000000000000081526004016118369061235e565b60405180910390fd5b6000600460008661ffff1661ffff16815260200190815260200160002060000160009054906101000a900461ffff16905060001515600360008361ffff1661ffff16815260200190815260200160002060020160009054906101000a900460ff161515146118e2576040517f08c379a00000000000000000000000000000000000000000000000000000000081526004016118d990612236565b60405180910390fd5b34600460008761ffff1661ffff1681526020019081526020016000206001015414611942576040517f08c379a0000000000000000000000000000000000000000000000000000000008152600401611939906123f0565b60405180910390fd5b61194a61165b565b346001600082825461195c9190612124565b925050819055506001600360008361ffff1661ffff16815260200190815260200160002060020160006101000a81548160ff0219169083151502179055505050505050565b60046020528060005260406000206000915090508060000160009054906101000a900461ffff16908060010154908060020160009054906101000a900473ffffffffffffffffffffffffffffffffffffffff16908060020160149054906101000a900460ff16908060020160159054906101000a900460ff16905085565b600060149054906101000a900461ffff1681565b600080fd5b600061ffff82169050919050565b611a4f81611a38565b8114611a5a57600080fd5b50565b600081359050611a6c81611a46565b92915050565b600060208284031215611a8857611a87611a33565b5b6000611a9684828501611a5d565b91505092915050565b6000819050919050565b611ab281611a9f565b82525050565b6000819050919050565b611acb81611ab8565b82525050565b60008115159050919050565b611ae681611ad1565b82525050565b611af581611a38565b82525050565b6000608082019050611b106000830187611aa9565b611b1d6020830186611ac2565b611b2a6040830185611add565b611b376060830184611aec565b95945050505050565b600073ffffffffffffffffffffffffffffffffffffffff82169050919050565b6000611b6b82611b40565b9050919050565b611b7b81611b60565b82525050565b600060a082019050611b966000830188611ac2565b611ba36020830187611ac2565b611bb06040830186611b72565b611bbd6060830185611add565b611bca6080830184611add565b9695505050505050565b6000602082019050611be96000830184611ac2565b92915050565b611bf881611ad1565b8114611c0357600080fd5b50565b600081359050611c1581611bef565b92915050565b60008060408385031215611c3257611c31611a33565b5b6000611c4085828601611a5d565b9250506020611c5185828601611c06565b9150509250929050565b6000602082019050611c706000830184611b72565b92915050565b611c7f81611ab8565b8114611c8a57600080fd5b50565b600081359050611c9c81611c76565b92915050565b60008060408385031215611cb957611cb8611a33565b5b6000611cc785828601611a5d565b9250506020611cd885828601611c8d565b9150509250929050565b611ceb81611a9f565b8114611cf657600080fd5b50565b600081359050611d0881611ce2565b92915050565b60008060408385031215611d2557611d24611a33565b5b6000611d3385828601611cf9565b9250506020611d4485828601611c8d565b9150509250929050565b6000602082019050611d636000830184611aec565b92915050565b600060a082019050611d7e6000830188611aec565b611d8b6020830187611ac2565b611d986040830186611b72565b611da56060830185611add565b611db26080830184611add565b9695505050505050565b600082825260208201905092915050565b7f546869732073616c6520646f6573206e6f742065786973740000000000000000600082015250565b6000611e03601883611dbc565b9150611e0e82611dcd565b602082019050919050565b60006020820190508181036000830152611e3281611df6565b9050919050565b7f54686973206f6666657220646f6573206e6f7420657869737400000000000000600082015250565b6000611e6f601983611dbc565b9150611e7a82611e39565b602082019050919050565b60006020820190508181036000830152611e9e81611e62565b9050919050565b7f4f776e6572206f6e6c792063616e2072756e2074686973207472616e7361637460008201527f696f6e0000000000000000000000000000000000000000000000000000000000602082015250565b6000611f01602383611dbc565b9150611f0c82611ea5565b604082019050919050565b60006020820190508181036000830152611f3081611ef4565b9050919050565b600081905092915050565b50565b6000611f52600083611f37565b9150611f5d82611f42565b600082019050919050565b6000611f7382611f45565b9150819050919050565b7f4661696c656420746f2073656e64204574686572000000000000000000000000600082015250565b6000611fb3601483611dbc565b9150611fbe82611f7d565b602082019050919050565b60006020820190508181036000830152611fe281611fa6565b9050919050565b7f596f7520617265206e6f74207468652062757965720000000000000000000000600082015250565b600061201f601583611dbc565b915061202a82611fe9565b602082019050919050565b6000602082019050818103600083015261204e81612012565b9050919050565b7f54686973206974656d206973206e6f7420736f6c640000000000000000000000600082015250565b600061208b601583611dbc565b915061209682612055565b602082019050919050565b600060208201905081810360008301526120ba8161207e565b9050919050565b7f4e487b7100000000000000000000000000000000000000000000000000000000600052601160045260246000fd5b60006120fb82611ab8565b915061210683611ab8565b925082820390508181111561211e5761211d6120c1565b5b92915050565b600061212f82611ab8565b915061213a83611ab8565b9250828201905080821115612152576121516120c1565b5b92915050565b7f596f752063616e206e6f7420637265617465206f6666657220617320796f752060008201527f61726520746865206f776e657200000000000000000000000000000000000000602082015250565b60006121b4602d83611dbc565b91506121bf82612158565b604082019050919050565b600060208201905081810360008301526121e3816121a7565b9050919050565b7f54686973206974656d20697320616c726561647920736f6c6400000000000000600082015250565b6000612220601983611dbc565b915061222b826121ea565b602082019050919050565b6000602082019050818103600083015261224f81612213565b9050919050565b7f50726963652063616e206e6f7420626520300000000000000000000000000000600082015250565b600061228c601283611dbc565b915061229782612256565b602082019050919050565b600060208201905081810360008301526122bb8161227f565b9050919050565b60006122cd82611a38565b915061ffff82036122e1576122e06120c1565b5b600182019050919050565b7f546865206f776e657220646964206e6f742061636365707420796f7572206f6660008201527f6665722079657400000000000000000000000000000000000000000000000000602082015250565b6000612348602783611dbc565b9150612353826122ec565b604082019050919050565b600060208201905081810360008301526123778161233b565b9050919050565b7f546865207072696365206973206e6f7420657175616c20746f2074686520766160008201527f6c756520796f752073656e740000000000000000000000000000000000000000602082015250565b60006123da602c83611dbc565b91506123e58261237e565b604082019050919050565b60006020820190508181036000830152612409816123cd565b905091905056fea2646970667358221220c2d0cdc42c41225e7748631e98e6c05092bfa6b3e1d2d2f36524c3a8699ff19164736f6c63430008120033a26469706673582212206611405c5f0948137535a923b645bd8ce61d766a1c749cff1d89dd17d86ef64a64736f6c63430008120033",
  "linkReferences": {},
  "deployedLinkReferences": {}
}