{
  "_format": "hh-sol-artifact-1",
  "contractName": "SecondHandShop",
  "sourceName": "contracts/LeBonCoin.sol",
  "abi": [
    {
      "inputs": [
        {
          "internalType": "address",
          "name": "_owner",
          "type": "address"
        }
      ],
      "stateMutability": "nonpayable",
      "type": "constructor"
    },
    {
      "anonymous": false,
      "inputs": [
        {
          "indexed": true,
          "internalType": "address",
          "name": "buyer",
          "type": "address"
        },
        {
          "indexed": false,
          "internalType": "uint256",
          "name": "offerId",
          "type": "uint256"
        }
      ],
      "name": "AcceptOffer",
      "type": "event"
    },
    {
      "anonymous": false,
      "inputs": [
        {
          "indexed": true,
          "internalType": "address",
          "name": "buyer",
          "type": "address"
        },
        {
          "indexed": false,
          "internalType": "uint256",
          "name": "offerId",
          "type": "uint256"
        },
        {
          "indexed": true,
          "internalType": "uint256",
          "name": "price",
          "type": "uint256"
        }
      ],
      "name": "Buy",
      "type": "event"
    },
    {
      "anonymous": false,
      "inputs": [
        {
          "indexed": true,
          "internalType": "address",
          "name": "buyer",
          "type": "address"
        },
        {
          "indexed": true,
          "internalType": "uint256",
          "name": "saleId",
          "type": "uint256"
        },
        {
          "indexed": true,
          "internalType": "uint256",
          "name": "priceOffered",
          "type": "uint256"
        }
      ],
      "name": "CreateOffer",
      "type": "event"
    },
    {
      "anonymous": false,
      "inputs": [
        {
          "indexed": true,
          "internalType": "address",
          "name": "owner",
          "type": "address"
        },
        {
          "indexed": true,
          "internalType": "uint256",
          "name": "saleId",
          "type": "uint256"
        }
      ],
      "name": "CreateSale",
      "type": "event"
    },
    {
      "anonymous": false,
      "inputs": [
        {
          "indexed": true,
          "internalType": "address",
          "name": "owner",
          "type": "address"
        },
        {
          "indexed": false,
          "internalType": "uint256",
          "name": "amount",
          "type": "uint256"
        }
      ],
      "name": "Withdraw",
      "type": "event"
    },
    {
      "inputs": [
        {
          "internalType": "uint256",
          "name": "_saleId",
          "type": "uint256"
        },
        {
          "internalType": "uint256",
          "name": "_price",
          "type": "uint256"
        }
      ],
      "name": "addOffer",
      "outputs": [],
      "stateMutability": "nonpayable",
      "type": "function"
    },
    {
      "inputs": [],
      "name": "amountAvailable",
      "outputs": [
        {
          "internalType": "uint256",
          "name": "",
          "type": "uint256"
        }
      ],
      "stateMutability": "view",
      "type": "function"
    },
    {
      "inputs": [],
      "name": "amountBlocked",
      "outputs": [
        {
          "internalType": "uint256",
          "name": "",
          "type": "uint256"
        }
      ],
      "stateMutability": "view",
      "type": "function"
    },
    {
      "inputs": [
        {
          "internalType": "uint256",
          "name": "_offerId",
          "type": "uint256"
        }
      ],
      "name": "buyTheSale",
      "outputs": [],
      "stateMutability": "payable",
      "type": "function"
    },
    {
      "inputs": [
        {
          "internalType": "uint256",
          "name": "_offerId",
          "type": "uint256"
        }
      ],
      "name": "comfirmReceive",
      "outputs": [],
      "stateMutability": "nonpayable",
      "type": "function"
    },
    {
      "inputs": [
        {
          "internalType": "string",
          "name": "_product",
          "type": "string"
        },
        {
          "internalType": "uint256",
          "name": "_price",
          "type": "uint256"
        }
      ],
      "name": "createSale",
      "outputs": [],
      "stateMutability": "nonpayable",
      "type": "function"
    },
    {
      "inputs": [],
      "name": "deposit",
      "outputs": [],
      "stateMutability": "payable",
      "type": "function"
    },
    {
      "inputs": [],
      "name": "getAvailableBalance",
      "outputs": [
        {
          "internalType": "uint256",
          "name": "",
          "type": "uint256"
        }
      ],
      "stateMutability": "view",
      "type": "function"
    },
    {
      "inputs": [],
      "name": "getBlockedBalance",
      "outputs": [
        {
          "internalType": "uint256",
          "name": "",
          "type": "uint256"
        }
      ],
      "stateMutability": "view",
      "type": "function"
    },
    {
      "inputs": [],
      "name": "getContractBalance",
      "outputs": [
        {
          "internalType": "uint256",
          "name": "",
          "type": "uint256"
        }
      ],
      "stateMutability": "view",
      "type": "function"
    },
    {
      "inputs": [
        {
          "internalType": "uint256",
          "name": "_id",
          "type": "uint256"
        }
      ],
      "name": "getOffer",
      "outputs": [
        {
          "internalType": "uint256",
          "name": "",
          "type": "uint256"
        },
        {
          "internalType": "uint256",
          "name": "",
          "type": "uint256"
        },
        {
          "internalType": "address",
          "name": "",
          "type": "address"
        },
        {
          "internalType": "bool",
          "name": "",
          "type": "bool"
        },
        {
          "internalType": "bool",
          "name": "",
          "type": "bool"
        }
      ],
      "stateMutability": "view",
      "type": "function"
    },
    {
      "inputs": [],
      "name": "getOwner",
      "outputs": [
        {
          "internalType": "address",
          "name": "",
          "type": "address"
        }
      ],
      "stateMutability": "view",
      "type": "function"
    },
    {
      "inputs": [],
      "name": "getOwnerBalance",
      "outputs": [
        {
          "internalType": "uint256",
          "name": "",
          "type": "uint256"
        }
      ],
      "stateMutability": "view",
      "type": "function"
    },
    {
      "inputs": [
        {
          "internalType": "uint256",
          "name": "_id",
          "type": "uint256"
        }
      ],
      "name": "getSale",
      "outputs": [
        {
          "internalType": "string",
          "name": "",
          "type": "string"
        },
        {
          "internalType": "uint256",
          "name": "",
          "type": "uint256"
        },
        {
          "internalType": "bool",
          "name": "",
          "type": "bool"
        }
      ],
      "stateMutability": "view",
      "type": "function"
    },
    {
      "inputs": [],
      "name": "offerNbr",
      "outputs": [
        {
          "internalType": "uint256",
          "name": "",
          "type": "uint256"
        }
      ],
      "stateMutability": "view",
      "type": "function"
    },
    {
      "inputs": [
        {
          "internalType": "uint256",
          "name": "",
          "type": "uint256"
        }
      ],
      "name": "offers",
      "outputs": [
        {
          "internalType": "uint256",
          "name": "saleId",
          "type": "uint256"
        },
        {
          "internalType": "uint256",
          "name": "price",
          "type": "uint256"
        },
        {
          "internalType": "address",
          "name": "buyer",
          "type": "address"
        },
        {
          "internalType": "bool",
          "name": "accepted",
          "type": "bool"
        },
        {
          "internalType": "bool",
          "name": "received",
          "type": "bool"
        }
      ],
      "stateMutability": "view",
      "type": "function"
    },
    {
      "inputs": [
        {
          "internalType": "uint256",
          "name": "_offerId",
          "type": "uint256"
        },
        {
          "internalType": "bool",
          "name": "_isAccepted",
          "type": "bool"
        }
      ],
      "name": "responseToOffer",
      "outputs": [],
      "stateMutability": "nonpayable",
      "type": "function"
    },
    {
      "inputs": [
        {
          "internalType": "uint256",
          "name": "",
          "type": "uint256"
        }
      ],
      "name": "sales",
      "outputs": [
        {
          "internalType": "string",
          "name": "product",
          "type": "string"
        },
        {
          "internalType": "uint256",
          "name": "price",
          "type": "uint256"
        },
        {
          "internalType": "bool",
          "name": "sold",
          "type": "bool"
        },
        {
          "internalType": "uint256",
          "name": "offerNbr",
          "type": "uint256"
        }
      ],
      "stateMutability": "view",
      "type": "function"
    },
    {
      "inputs": [],
      "name": "salesNbr",
      "outputs": [
        {
          "internalType": "uint256",
          "name": "",
          "type": "uint256"
        }
      ],
      "stateMutability": "view",
      "type": "function"
    },
    {
      "inputs": [],
      "name": "withdraw",
      "outputs": [],
      "stateMutability": "nonpayable",
      "type": "function"
    }
  ],
  "bytecode": "0x6080604052600060035560006004553480156200001b57600080fd5b5060405162002909380380620029098339818101604052810190620000419190620000f2565b806000806101000a81548173ffffffffffffffffffffffffffffffffffffffff021916908373ffffffffffffffffffffffffffffffffffffffff1602179055505062000124565b600080fd5b600073ffffffffffffffffffffffffffffffffffffffff82169050919050565b6000620000ba826200008d565b9050919050565b620000cc81620000ad565b8114620000d857600080fd5b50565b600081519050620000ec81620000c1565b92915050565b6000602082840312156200010b576200010a62000088565b5b60006200011b84828501620000db565b91505092915050565b6127d580620001346000396000f3fe60806040526004361061011f5760003560e01c80638a72ea6a116100a0578063d0e30db011610064578063d0e30db0146103c1578063d2c272d1146103cb578063d3977869146103f6578063d8f6d5961461041f578063f0a123171461045e5761011f565b80638a72ea6a146102d05780639078e3991461031157806393eaedd81461033c57806398417f3014610365578063b5f522f7146103815761011f565b80636f9fb98a116100e75780636f9fb98a146101fb578063745c97eb14610226578063755f519614610251578063809dab6a1461027a578063893d20e8146102a55761011f565b80633c799547146101245780633ccfd60b1461014f5780634579268a14610166578063590791f2146101a757806368cc2301146101d2575b600080fd5b34801561013057600080fd5b50610139610489565b604051610146919061194b565b60405180910390f35b34801561015b57600080fd5b5061016461048f565b005b34801561017257600080fd5b5061018d600480360381019061018891906119a6565b61066b565b60405161019e959493929190611a2f565b60405180910390f35b3480156101b357600080fd5b506101bc610809565b6040516101c9919061194b565b60405180910390f35b3480156101de57600080fd5b506101f960048036038101906101f49190611bc8565b6108d7565b005b34801561020757600080fd5b50610210610a93565b60405161021d919061194b565b60405180910390f35b34801561023257600080fd5b5061023b610b2a565b604051610248919061194b565b60405180910390f35b34801561025d57600080fd5b5061027860048036038101906102739190611c24565b610b30565b005b34801561028657600080fd5b5061028f610e4d565b60405161029c919061194b565b60405180910390f35b3480156102b157600080fd5b506102ba610ee6565b6040516102c79190611c64565b60405180910390f35b3480156102dc57600080fd5b506102f760048036038101906102f291906119a6565b610f0f565b604051610308959493929190611a2f565b60405180910390f35b34801561031d57600080fd5b50610326610f7f565b604051610333919061194b565b60405180910390f35b34801561034857600080fd5b50610363600480360381019061035e9190611cab565b611018565b005b61037f600480360381019061037a91906119a6565b611210565b005b34801561038d57600080fd5b506103a860048036038101906103a391906119a6565b6114fa565b6040516103b89493929190611d6a565b60405180910390f35b6103c96115bf565b005b3480156103d757600080fd5b506103e06115c1565b6040516103ed919061194b565b60405180910390f35b34801561040257600080fd5b5061041d600480360381019061041891906119a6565b6115c7565b005b34801561042b57600080fd5b50610446600480360381019061044191906119a6565b6117cc565b60405161045593929190611db6565b60405180910390f35b34801561046a57600080fd5b5061047361192c565b604051610480919061194b565b60405180910390f35b60025481565b60008054906101000a900473ffffffffffffffffffffffffffffffffffffffff1673ffffffffffffffffffffffffffffffffffffffff163373ffffffffffffffffffffffffffffffffffffffff161461051d576040517f08c379a000000000000000000000000000000000000000000000000000000000815260040161051490611e66565b60405180910390fd5b6000600254905060008060009054906101000a900473ffffffffffffffffffffffffffffffffffffffff1673ffffffffffffffffffffffffffffffffffffffff168260405161056b90611eb7565b60006040518083038185875af1925050503d80600081146105a8576040519150601f19603f3d011682016040523d82523d6000602084013e6105ad565b606091505b50509050806105f1576040517f08c379a00000000000000000000000000000000000000000000000000000000081526004016105e890611f18565b60405180910390fd5b600060028190555060008054906101000a900473ffffffffffffffffffffffffffffffffffffffff1673ffffffffffffffffffffffffffffffffffffffff167f884edad9ce6fa2440d8a54cc123490eb96d2768479d49ff9c7366125a94243648360405161065f919061194b565b60405180910390a25050565b600080600080600085600073ffffffffffffffffffffffffffffffffffffffff166006600083815260200190815260200160002060020160009054906101000a900473ffffffffffffffffffffffffffffffffffffffff1673ffffffffffffffffffffffffffffffffffffffff1603610719576040517f08c379a000000000000000000000000000000000000000000000000000000000815260040161071090611f84565b60405180910390fd5b6000600660008981526020019081526020016000206040518060a001604052908160008201548152602001600182015481526020016002820160009054906101000a900473ffffffffffffffffffffffffffffffffffffffff1673ffffffffffffffffffffffffffffffffffffffff1673ffffffffffffffffffffffffffffffffffffffff1681526020016002820160149054906101000a900460ff161515151581526020016002820160159054906101000a900460ff16151515158152505090508060000151816020015182604001518360600151846080015196509650965096509650505091939590929450565b60008060009054906101000a900473ffffffffffffffffffffffffffffffffffffffff1673ffffffffffffffffffffffffffffffffffffffff163373ffffffffffffffffffffffffffffffffffffffff161461089a576040517f08c379a000000000000000000000000000000000000000000000000000000000815260040161089190611e66565b60405180910390fd5b60008054906101000a900473ffffffffffffffffffffffffffffffffffffffff1673ffffffffffffffffffffffffffffffffffffffff1631905090565b60008054906101000a900473ffffffffffffffffffffffffffffffffffffffff1673ffffffffffffffffffffffffffffffffffffffff163373ffffffffffffffffffffffffffffffffffffffff1614610965576040517f08c379a000000000000000000000000000000000000000000000000000000000815260040161095c90611e66565b60405180910390fd5b80600081116109a9576040517f08c379a00000000000000000000000000000000000000000000000000000000081526004016109a090611ff0565b60405180910390fd5b600360008154809291906109bc9061203f565b9190505550604051806080016040528084815260200183815260200160001515815260200160008152506005600060035481526020019081526020016000206000820151816000019081610a109190612293565b506020820151816001015560408201518160020160006101000a81548160ff021916908315150217905550606082015181600301559050506003543373ffffffffffffffffffffffffffffffffffffffff167f31cf60878d1437dd30f9aaac2b138e96954a45219c79d31be796d6a2e223ab9060405160405180910390a3505050565b60008060009054906101000a900473ffffffffffffffffffffffffffffffffffffffff1673ffffffffffffffffffffffffffffffffffffffff163373ffffffffffffffffffffffffffffffffffffffff1614610b24576040517f08c379a0000000000000000000000000000000000000000000000000000000008152600401610b1b90611e66565b60405180910390fd5b47905090565b60015481565b60008054906101000a900473ffffffffffffffffffffffffffffffffffffffff1673ffffffffffffffffffffffffffffffffffffffff163373ffffffffffffffffffffffffffffffffffffffff1603610bbe576040517f08c379a0000000000000000000000000000000000000000000000000000000008152600401610bb5906123d7565b60405180910390fd5b816000600560008381526020019081526020016000206001015411610c18576040517f08c379a0000000000000000000000000000000000000000000000000000000008152600401610c0f90612443565b60405180910390fd5b82600015156005600083815260200190815260200160002060020160009054906101000a900460ff16151514610c83576040517f08c379a0000000000000000000000000000000000000000000000000000000008152600401610c7a906124af565b60405180910390fd5b8260008111610cc7576040517f08c379a0000000000000000000000000000000000000000000000000000000008152600401610cbe90611ff0565b60405180910390fd5b60046000815480929190610cda9061203f565b91905055506040518060a001604052808681526020018581526020013373ffffffffffffffffffffffffffffffffffffffff16815260200160001515815260200160001515815250600660006004548152602001908152602001600020600082015181600001556020820151816001015560408201518160020160006101000a81548173ffffffffffffffffffffffffffffffffffffffff021916908373ffffffffffffffffffffffffffffffffffffffff16021790555060608201518160020160146101000a81548160ff02191690831515021790555060808201518160020160156101000a81548160ff021916908315150217905550905050600560008681526020019081526020016000206003016000815480929190610dfc9061203f565b919050555083853373ffffffffffffffffffffffffffffffffffffffff167fa9d9407c68bf591879198d57118587b1e56ce4baad986fcb6c92d745c354e8c060405160405180910390a45050505050565b60008060009054906101000a900473ffffffffffffffffffffffffffffffffffffffff1673ffffffffffffffffffffffffffffffffffffffff163373ffffffffffffffffffffffffffffffffffffffff1614610ede576040517f08c379a0000000000000000000000000000000000000000000000000000000008152600401610ed590611e66565b60405180910390fd5b600254905090565b60008060009054906101000a900473ffffffffffffffffffffffffffffffffffffffff16905090565b60066020528060005260406000206000915090508060000154908060010154908060020160009054906101000a900473ffffffffffffffffffffffffffffffffffffffff16908060020160149054906101000a900460ff16908060020160159054906101000a900460ff16905085565b60008060009054906101000a900473ffffffffffffffffffffffffffffffffffffffff1673ffffffffffffffffffffffffffffffffffffffff163373ffffffffffffffffffffffffffffffffffffffff1614611010576040517f08c379a000000000000000000000000000000000000000000000000000000000815260040161100790611e66565b60405180910390fd5b600154905090565b81600073ffffffffffffffffffffffffffffffffffffffff166006600083815260200190815260200160002060020160009054906101000a900473ffffffffffffffffffffffffffffffffffffffff1673ffffffffffffffffffffffffffffffffffffffff16036110be576040517f08c379a00000000000000000000000000000000000000000000000000000000081526004016110b590611f84565b60405180910390fd5b60008054906101000a900473ffffffffffffffffffffffffffffffffffffffff1673ffffffffffffffffffffffffffffffffffffffff163373ffffffffffffffffffffffffffffffffffffffff161461114c576040517f08c379a000000000000000000000000000000000000000000000000000000000815260040161114390611e66565b60405180910390fd5b600115158215150361120b576006600084815260200190815260200160002060020160009054906101000a900473ffffffffffffffffffffffffffffffffffffffff1673ffffffffffffffffffffffffffffffffffffffff167f473f42a87e22266c4b60bb08f277f233ec4fb7692e0e4e841bad314c0dc67d71846040516111d4919061194b565b60405180910390a2816006600085815260200190815260200160002060020160146101000a81548160ff0219169083151502179055505b505050565b80600073ffffffffffffffffffffffffffffffffffffffff166006600083815260200190815260200160002060020160009054906101000a900473ffffffffffffffffffffffffffffffffffffffff1673ffffffffffffffffffffffffffffffffffffffff16036112b6576040517f08c379a00000000000000000000000000000000000000000000000000000000081526004016112ad90611f84565b60405180910390fd5b813373ffffffffffffffffffffffffffffffffffffffff166006600083815260200190815260200160002060020160009054906101000a900473ffffffffffffffffffffffffffffffffffffffff1673ffffffffffffffffffffffffffffffffffffffff161461135b576040517f08c379a00000000000000000000000000000000000000000000000000000000081526004016113529061251b565b60405180910390fd5b82600115156006600083815260200190815260200160002060020160149054906101000a900460ff161515146113c6576040517f08c379a00000000000000000000000000000000000000000000000000000000081526004016113bd906125ad565b60405180910390fd5b600060066000868152602001908152602001600020600001549050600015156005600083815260200190815260200160002060020160009054906101000a900460ff1615151461144b576040517f08c379a000000000000000000000000000000000000000000000000000000000815260040161144290612619565b60405180910390fd5b346006600087815260200190815260200160002060010154146114a3576040517f08c379a000000000000000000000000000000000000000000000000000000000815260040161149a906126ab565b60405180910390fd5b6114ab6115bf565b34600160008282546114bd91906126cb565b9250508190555060016005600083815260200190815260200160002060020160006101000a81548160ff0219169083151502179055505050505050565b600560205280600052604060002060009150905080600001805461151d906120b6565b80601f0160208091040260200160405190810160405280929190818152602001828054611549906120b6565b80156115965780601f1061156b57610100808354040283529160200191611596565b820191906000526020600020905b81548152906001019060200180831161157957829003601f168201915b5050505050908060010154908060020160009054906101000a900460ff16908060030154905084565b565b60045481565b803373ffffffffffffffffffffffffffffffffffffffff166006600083815260200190815260200160002060020160009054906101000a900473ffffffffffffffffffffffffffffffffffffffff1673ffffffffffffffffffffffffffffffffffffffff161461166c576040517f08c379a00000000000000000000000000000000000000000000000000000000081526004016116639061251b565b60405180910390fd5b600115156005600084815260200190815260200160002060020160009054906101000a900460ff161515146116d6576040517f08c379a00000000000000000000000000000000000000000000000000000000081526004016116cd9061274b565b60405180910390fd5b60016006600084815260200190815260200160002060020160156101000a81548160ff02191690831515021790555060066000838152602001908152602001600020600101546001600082825461172d919061276b565b9250508190555060066000838152602001908152602001600020600101546002600082825461175c91906126cb565b9250508190555060066000838152602001908152602001600020600101543373ffffffffffffffffffffffffffffffffffffffff167f1cbc5ab135991bd2b6a4b034a04aa2aa086dac1371cb9b16b8b5e2ed6b036bed846040516117c0919061194b565b60405180910390a35050565b606060008083600060056000838152602001908152602001600020600101541161182b576040517f08c379a000000000000000000000000000000000000000000000000000000000815260040161182290612443565b60405180910390fd5b60006005600087815260200190815260200160002060405180608001604052908160008201805461185b906120b6565b80601f0160208091040260200160405190810160405280929190818152602001828054611887906120b6565b80156118d45780601f106118a9576101008083540402835291602001916118d4565b820191906000526020600020905b8154815290600101906020018083116118b757829003601f168201915b50505050508152602001600182015481526020016002820160009054906101000a900460ff16151515158152602001600382015481525050905080600001518160200151826040015194509450945050509193909250565b60035481565b6000819050919050565b61194581611932565b82525050565b6000602082019050611960600083018461193c565b92915050565b6000604051905090565b600080fd5b600080fd5b61198381611932565b811461198e57600080fd5b50565b6000813590506119a08161197a565b92915050565b6000602082840312156119bc576119bb611970565b5b60006119ca84828501611991565b91505092915050565b600073ffffffffffffffffffffffffffffffffffffffff82169050919050565b60006119fe826119d3565b9050919050565b611a0e816119f3565b82525050565b60008115159050919050565b611a2981611a14565b82525050565b600060a082019050611a44600083018861193c565b611a51602083018761193c565b611a5e6040830186611a05565b611a6b6060830185611a20565b611a786080830184611a20565b9695505050505050565b600080fd5b600080fd5b6000601f19601f8301169050919050565b7f4e487b7100000000000000000000000000000000000000000000000000000000600052604160045260246000fd5b611ad582611a8c565b810181811067ffffffffffffffff82111715611af457611af3611a9d565b5b80604052505050565b6000611b07611966565b9050611b138282611acc565b919050565b600067ffffffffffffffff821115611b3357611b32611a9d565b5b611b3c82611a8c565b9050602081019050919050565b82818337600083830152505050565b6000611b6b611b6684611b18565b611afd565b905082815260208101848484011115611b8757611b86611a87565b5b611b92848285611b49565b509392505050565b600082601f830112611baf57611bae611a82565b5b8135611bbf848260208601611b58565b91505092915050565b60008060408385031215611bdf57611bde611970565b5b600083013567ffffffffffffffff811115611bfd57611bfc611975565b5b611c0985828601611b9a565b9250506020611c1a85828601611991565b9150509250929050565b60008060408385031215611c3b57611c3a611970565b5b6000611c4985828601611991565b9250506020611c5a85828601611991565b9150509250929050565b6000602082019050611c796000830184611a05565b92915050565b611c8881611a14565b8114611c9357600080fd5b50565b600081359050611ca581611c7f565b92915050565b60008060408385031215611cc257611cc1611970565b5b6000611cd085828601611991565b9250506020611ce185828601611c96565b9150509250929050565b600081519050919050565b600082825260208201905092915050565b60005b83811015611d25578082015181840152602081019050611d0a565b60008484015250505050565b6000611d3c82611ceb565b611d468185611cf6565b9350611d56818560208601611d07565b611d5f81611a8c565b840191505092915050565b60006080820190508181036000830152611d848187611d31565b9050611d93602083018661193c565b611da06040830185611a20565b611dad606083018461193c565b95945050505050565b60006060820190508181036000830152611dd08186611d31565b9050611ddf602083018561193c565b611dec6040830184611a20565b949350505050565b7f4f776e6572206f6e6c792063616e2072756e2074686973207472616e7361637460008201527f696f6e0000000000000000000000000000000000000000000000000000000000602082015250565b6000611e50602383611cf6565b9150611e5b82611df4565b604082019050919050565b60006020820190508181036000830152611e7f81611e43565b9050919050565b600081905092915050565b50565b6000611ea1600083611e86565b9150611eac82611e91565b600082019050919050565b6000611ec282611e94565b9150819050919050565b7f4661696c656420746f2073656e64204574686572000000000000000000000000600082015250565b6000611f02601483611cf6565b9150611f0d82611ecc565b602082019050919050565b60006020820190508181036000830152611f3181611ef5565b9050919050565b7f54686973206f6666657220646f6573206e6f7420657869737400000000000000600082015250565b6000611f6e601983611cf6565b9150611f7982611f38565b602082019050919050565b60006020820190508181036000830152611f9d81611f61565b9050919050565b7f50726963652063616e206e6f7420626520300000000000000000000000000000600082015250565b6000611fda601283611cf6565b9150611fe582611fa4565b602082019050919050565b6000602082019050818103600083015261200981611fcd565b9050919050565b7f4e487b7100000000000000000000000000000000000000000000000000000000600052601160045260246000fd5b600061204a82611932565b91507fffffffffffffffffffffffffffffffffffffffffffffffffffffffffffffffff820361207c5761207b612010565b5b600182019050919050565b7f4e487b7100000000000000000000000000000000000000000000000000000000600052602260045260246000fd5b600060028204905060018216806120ce57607f821691505b6020821081036120e1576120e0612087565b5b50919050565b60008190508160005260206000209050919050565b60006020601f8301049050919050565b600082821b905092915050565b6000600883026121497fffffffffffffffffffffffffffffffffffffffffffffffffffffffffffffffff8261210c565b612153868361210c565b95508019841693508086168417925050509392505050565b6000819050919050565b600061219061218b61218684611932565b61216b565b611932565b9050919050565b6000819050919050565b6121aa83612175565b6121be6121b682612197565b848454612119565b825550505050565b600090565b6121d36121c6565b6121de8184846121a1565b505050565b5b81811015612202576121f76000826121cb565b6001810190506121e4565b5050565b601f82111561224757612218816120e7565b612221846120fc565b81016020851015612230578190505b61224461223c856120fc565b8301826121e3565b50505b505050565b600082821c905092915050565b600061226a6000198460080261224c565b1980831691505092915050565b60006122838383612259565b9150826002028217905092915050565b61229c82611ceb565b67ffffffffffffffff8111156122b5576122b4611a9d565b5b6122bf82546120b6565b6122ca828285612206565b600060209050601f8311600181146122fd57600084156122eb578287015190505b6122f58582612277565b86555061235d565b601f19841661230b866120e7565b60005b828110156123335784890151825560018201915060208501945060208101905061230e565b86831015612350578489015161234c601f891682612259565b8355505b6001600288020188555050505b505050505050565b7f596f752063616e206e6f7420637265617465206f6666657220617320796f752060008201527f61726520746865206f776e657200000000000000000000000000000000000000602082015250565b60006123c1602d83611cf6565b91506123cc82612365565b604082019050919050565b600060208201905081810360008301526123f0816123b4565b9050919050565b7f546869732073616c6520646f6573206e6f742065786973740000000000000000600082015250565b600061242d601883611cf6565b9150612438826123f7565b602082019050919050565b6000602082019050818103600083015261245c81612420565b9050919050565b7f54686973206974656d20697320616c726561647920736f6c6400000000000000600082015250565b6000612499601983611cf6565b91506124a482612463565b602082019050919050565b600060208201905081810360008301526124c88161248c565b9050919050565b7f596f7520617265206e6f74207468652062757965720000000000000000000000600082015250565b6000612505601583611cf6565b9150612510826124cf565b602082019050919050565b60006020820190508181036000830152612534816124f8565b9050919050565b7f546865206f776e657220646964206e6f742061636365707420796f7572206f6660008201527f6665722079657400000000000000000000000000000000000000000000000000602082015250565b6000612597602783611cf6565b91506125a28261253b565b604082019050919050565b600060208201905081810360008301526125c68161258a565b9050919050565b7f546869732070726f6475637420697320616c726561647920736f6c6400000000600082015250565b6000612603601c83611cf6565b915061260e826125cd565b602082019050919050565b60006020820190508181036000830152612632816125f6565b9050919050565b7f546865207072696365206973206e6f7420657175616c20746f2074686520766160008201527f6c756520796f752073656e740000000000000000000000000000000000000000602082015250565b6000612695602c83611cf6565b91506126a082612639565b604082019050919050565b600060208201905081810360008301526126c481612688565b9050919050565b60006126d682611932565b91506126e183611932565b92508282019050808211156126f9576126f8612010565b5b92915050565b7f54686973206974656d206973206973206e6f7420736f6c640000000000000000600082015250565b6000612735601883611cf6565b9150612740826126ff565b602082019050919050565b6000602082019050818103600083015261276481612728565b9050919050565b600061277682611932565b915061278183611932565b925082820390508181111561279957612798612010565b5b9291505056fea264697066735822122061b8f29cb33587dbe0b4ff3e1c5f465139ea1c760153b1a99db623e7590e8fc264736f6c63430008120033",
  "linkReferences": {},
  "deployedLinkReferences": {}
}