{
  "_format": "hh-sol-artifact-1",
  "contractName": "SecondHandShop",
  "sourceName": "contracts/LeBonCoin.sol",
  "abi": [
    {
      "inputs": [
        {
          "internalType": "address",
          "name": "_owner",
          "type": "address"
        }
      ],
      "stateMutability": "nonpayable",
      "type": "constructor"
    },
    {
      "anonymous": false,
      "inputs": [
        {
          "indexed": true,
          "internalType": "address",
          "name": "buyer",
          "type": "address"
        },
        {
          "indexed": false,
          "internalType": "uint16",
          "name": "offerId",
          "type": "uint16"
        }
      ],
      "name": "AcceptOffer",
      "type": "event"
    },
    {
      "anonymous": false,
      "inputs": [
        {
          "indexed": true,
          "internalType": "address",
          "name": "buyer",
          "type": "address"
        },
        {
          "indexed": false,
          "internalType": "uint16",
          "name": "offerId",
          "type": "uint16"
        },
        {
          "indexed": true,
          "internalType": "uint256",
          "name": "price",
          "type": "uint256"
        }
      ],
      "name": "Buy",
      "type": "event"
    },
    {
      "anonymous": false,
      "inputs": [
        {
          "indexed": true,
          "internalType": "address",
          "name": "buyer",
          "type": "address"
        },
        {
          "indexed": true,
          "internalType": "uint256",
          "name": "saleId",
          "type": "uint256"
        },
        {
          "indexed": true,
          "internalType": "uint256",
          "name": "priceOffered",
          "type": "uint256"
        }
      ],
      "name": "CreateOffer",
      "type": "event"
    },
    {
      "anonymous": false,
      "inputs": [
        {
          "indexed": true,
          "internalType": "address",
          "name": "owner",
          "type": "address"
        },
        {
          "indexed": true,
          "internalType": "uint256",
          "name": "saleId",
          "type": "uint256"
        }
      ],
      "name": "CreateSale",
      "type": "event"
    },
    {
      "anonymous": false,
      "inputs": [
        {
          "indexed": true,
          "internalType": "address",
          "name": "owner",
          "type": "address"
        },
        {
          "indexed": false,
          "internalType": "uint256",
          "name": "amount",
          "type": "uint256"
        }
      ],
      "name": "Withdraw",
      "type": "event"
    },
    {
      "inputs": [
        {
          "internalType": "uint16",
          "name": "_saleId",
          "type": "uint16"
        },
        {
          "internalType": "uint256",
          "name": "_price",
          "type": "uint256"
        }
      ],
      "name": "addOffer",
      "outputs": [],
      "stateMutability": "nonpayable",
      "type": "function"
    },
    {
      "inputs": [],
      "name": "amountAvailable",
      "outputs": [
        {
          "internalType": "uint256",
          "name": "",
          "type": "uint256"
        }
      ],
      "stateMutability": "view",
      "type": "function"
    },
    {
      "inputs": [],
      "name": "amountBlocked",
      "outputs": [
        {
          "internalType": "uint256",
          "name": "",
          "type": "uint256"
        }
      ],
      "stateMutability": "view",
      "type": "function"
    },
    {
      "inputs": [
        {
          "internalType": "uint16",
          "name": "_offerId",
          "type": "uint16"
        }
      ],
      "name": "buyTheSale",
      "outputs": [],
      "stateMutability": "payable",
      "type": "function"
    },
    {
      "inputs": [
        {
          "internalType": "uint16",
          "name": "_offerId",
          "type": "uint16"
        }
      ],
      "name": "comfirmReceive",
      "outputs": [],
      "stateMutability": "nonpayable",
      "type": "function"
    },
    {
      "inputs": [
        {
          "internalType": "bytes32",
          "name": "_item",
          "type": "bytes32"
        },
        {
          "internalType": "uint256",
          "name": "_price",
          "type": "uint256"
        }
      ],
      "name": "createSale",
      "outputs": [],
      "stateMutability": "nonpayable",
      "type": "function"
    },
    {
      "inputs": [],
      "name": "deposit",
      "outputs": [],
      "stateMutability": "payable",
      "type": "function"
    },
    {
      "inputs": [],
      "name": "getAvailableBalance",
      "outputs": [
        {
          "internalType": "uint256",
          "name": "",
          "type": "uint256"
        }
      ],
      "stateMutability": "view",
      "type": "function"
    },
    {
      "inputs": [],
      "name": "getBlockedBalance",
      "outputs": [
        {
          "internalType": "uint256",
          "name": "",
          "type": "uint256"
        }
      ],
      "stateMutability": "view",
      "type": "function"
    },
    {
      "inputs": [],
      "name": "getContractBalance",
      "outputs": [
        {
          "internalType": "uint256",
          "name": "",
          "type": "uint256"
        }
      ],
      "stateMutability": "view",
      "type": "function"
    },
    {
      "inputs": [
        {
          "internalType": "uint16",
          "name": "_id",
          "type": "uint16"
        }
      ],
      "name": "getOffer",
      "outputs": [
        {
          "internalType": "uint256",
          "name": "",
          "type": "uint256"
        },
        {
          "internalType": "uint256",
          "name": "",
          "type": "uint256"
        },
        {
          "internalType": "address",
          "name": "",
          "type": "address"
        },
        {
          "internalType": "bool",
          "name": "",
          "type": "bool"
        },
        {
          "internalType": "bool",
          "name": "",
          "type": "bool"
        }
      ],
      "stateMutability": "view",
      "type": "function"
    },
    {
      "inputs": [],
      "name": "getOwner",
      "outputs": [
        {
          "internalType": "address",
          "name": "",
          "type": "address"
        }
      ],
      "stateMutability": "view",
      "type": "function"
    },
    {
      "inputs": [],
      "name": "getOwnerBalance",
      "outputs": [
        {
          "internalType": "uint256",
          "name": "",
          "type": "uint256"
        }
      ],
      "stateMutability": "view",
      "type": "function"
    },
    {
      "inputs": [
        {
          "internalType": "uint16",
          "name": "_id",
          "type": "uint16"
        }
      ],
      "name": "getSale",
      "outputs": [
        {
          "internalType": "bytes32",
          "name": "",
          "type": "bytes32"
        },
        {
          "internalType": "uint256",
          "name": "",
          "type": "uint256"
        },
        {
          "internalType": "bool",
          "name": "",
          "type": "bool"
        }
      ],
      "stateMutability": "view",
      "type": "function"
    },
    {
      "inputs": [],
      "name": "offerNbr",
      "outputs": [
        {
          "internalType": "uint16",
          "name": "",
          "type": "uint16"
        }
      ],
      "stateMutability": "view",
      "type": "function"
    },
    {
      "inputs": [
        {
          "internalType": "uint16",
          "name": "",
          "type": "uint16"
        }
      ],
      "name": "offers",
      "outputs": [
        {
          "internalType": "uint16",
          "name": "saleId",
          "type": "uint16"
        },
        {
          "internalType": "uint256",
          "name": "price",
          "type": "uint256"
        },
        {
          "internalType": "address",
          "name": "buyer",
          "type": "address"
        },
        {
          "internalType": "bool",
          "name": "accepted",
          "type": "bool"
        },
        {
          "internalType": "bool",
          "name": "received",
          "type": "bool"
        }
      ],
      "stateMutability": "view",
      "type": "function"
    },
    {
      "inputs": [
        {
          "internalType": "uint16",
          "name": "_offerId",
          "type": "uint16"
        },
        {
          "internalType": "bool",
          "name": "_isAccepted",
          "type": "bool"
        }
      ],
      "name": "responseToOffer",
      "outputs": [],
      "stateMutability": "nonpayable",
      "type": "function"
    },
    {
      "inputs": [
        {
          "internalType": "uint16",
          "name": "",
          "type": "uint16"
        }
      ],
      "name": "sales",
      "outputs": [
        {
          "internalType": "bytes32",
          "name": "item",
          "type": "bytes32"
        },
        {
          "internalType": "uint256",
          "name": "price",
          "type": "uint256"
        },
        {
          "internalType": "bool",
          "name": "sold",
          "type": "bool"
        },
        {
          "internalType": "uint256",
          "name": "offerNbr",
          "type": "uint256"
        }
      ],
      "stateMutability": "view",
      "type": "function"
    },
    {
      "inputs": [],
      "name": "salesNbr",
      "outputs": [
        {
          "internalType": "uint16",
          "name": "",
          "type": "uint16"
        }
      ],
      "stateMutability": "view",
      "type": "function"
    },
    {
      "inputs": [],
      "name": "withdraw",
      "outputs": [],
      "stateMutability": "nonpayable",
      "type": "function"
    }
  ],
  "bytecode": "0x608060405260008060146101000a81548161ffff021916908361ffff16021790555060008060166101000a81548161ffff021916908361ffff1602179055503480156200004b57600080fd5b50604051620025bc380380620025bc833981810160405281019062000071919062000122565b806000806101000a81548173ffffffffffffffffffffffffffffffffffffffff021916908373ffffffffffffffffffffffffffffffffffffffff1602179055505062000154565b600080fd5b600073ffffffffffffffffffffffffffffffffffffffff82169050919050565b6000620000ea82620000bd565b9050919050565b620000fc81620000dd565b81146200010857600080fd5b50565b6000815190506200011c81620000f1565b92915050565b6000602082840312156200013b576200013a620000b8565b5b60006200014b848285016200010b565b91505092915050565b61245880620001646000396000f3fe60806040526004361061011f5760003560e01c8063893d20e8116100a0578063d0e30db011610064578063d0e30db0146103cc578063d2c272d1146103d6578063db1b318114610401578063e00866231461041d578063f0a123171461045e5761011f565b8063893d20e8146102fb5780639078e39914610326578063a204886e14610351578063a21132a41461037a578063bf735b13146103a35761011f565b8063590791f2116100e7578063590791f2146102265780636f9fb98a14610251578063745c97eb1461027c57806378c3681c146102a7578063809dab6a146102d05761011f565b8063025ee700146101245780630c3def7f1461016457806318d4baae146101a35780633c799547146101e45780633ccfd60b1461020f575b600080fd5b34801561013057600080fd5b5061014b60048036038101906101469190611a05565b610489565b60405161015b9493929190611a7f565b60405180910390f35b34801561017057600080fd5b5061018b60048036038101906101869190611a05565b6104c6565b60405161019a93929190611ac4565b60405180910390f35b3480156101af57600080fd5b506101ca60048036038101906101c59190611a05565b6105ae565b6040516101db959493929190611b3c565b60405180910390f35b3480156101f057600080fd5b506101f9610779565b6040516102069190611b8f565b60405180910390f35b34801561021b57600080fd5b5061022461077f565b005b34801561023257600080fd5b5061023b61095b565b6040516102489190611b8f565b60405180910390f35b34801561025d57600080fd5b50610266610a29565b6040516102739190611b8f565b60405180910390f35b34801561028857600080fd5b50610291610ac0565b60405161029e9190611b8f565b60405180910390f35b3480156102b357600080fd5b506102ce60048036038101906102c99190611bd6565b610ac6565b005b3480156102dc57600080fd5b506102e5610cd6565b6040516102f29190611b8f565b60405180910390f35b34801561030757600080fd5b50610310610d6f565b60405161031d9190611c16565b60405180910390f35b34801561033257600080fd5b5061033b610d98565b6040516103489190611b8f565b60405180910390f35b34801561035d57600080fd5b5061037860048036038101906103739190611a05565b610e31565b005b34801561038657600080fd5b506103a1600480360381019061039c9190611c5d565b611066565b005b3480156103af57600080fd5b506103ca60048036038101906103c59190611cc9565b6113f4565b005b6103d46115ee565b005b3480156103e257600080fd5b506103eb6115f0565b6040516103f89190611d18565b60405180910390f35b61041b60048036038101906104169190611a05565b611604565b005b34801561042957600080fd5b50610444600480360381019061043f9190611a05565b611934565b604051610455959493929190611d33565b60405180910390f35b34801561046a57600080fd5b506104736119b2565b6040516104809190611d18565b60405180910390f35b60036020528060005260406000206000915090508060000154908060010154908060020160009054906101000a900460ff16908060030154905084565b6000806000836000600360008361ffff1661ffff168152602001908152602001600020600101541161052d576040517f08c379a000000000000000000000000000000000000000000000000000000000815260040161052490611de3565b60405180910390fd5b6000600360008761ffff1661ffff16815260200190815260200160002060405180608001604052908160008201548152602001600182015481526020016002820160009054906101000a900460ff16151515158152602001600382015481525050905080600001518160200151826040015194509450945050509193909250565b600080600080600085600073ffffffffffffffffffffffffffffffffffffffff16600460008361ffff1661ffff16815260200190815260200160002060020160009054906101000a900473ffffffffffffffffffffffffffffffffffffffff1673ffffffffffffffffffffffffffffffffffffffff1603610664576040517f08c379a000000000000000000000000000000000000000000000000000000000815260040161065b90611e4f565b60405180910390fd5b6000600460008961ffff1661ffff1681526020019081526020016000206040518060a00160405290816000820160009054906101000a900461ffff1661ffff1661ffff168152602001600182015481526020016002820160009054906101000a900473ffffffffffffffffffffffffffffffffffffffff1673ffffffffffffffffffffffffffffffffffffffff1673ffffffffffffffffffffffffffffffffffffffff1681526020016002820160149054906101000a900460ff161515151581526020016002820160159054906101000a900460ff1615151515815250509050806000015181602001518260400151836060015184608001518461ffff16945096509650965096509650505091939590929450565b60025481565b60008054906101000a900473ffffffffffffffffffffffffffffffffffffffff1673ffffffffffffffffffffffffffffffffffffffff163373ffffffffffffffffffffffffffffffffffffffff161461080d576040517f08c379a000000000000000000000000000000000000000000000000000000000815260040161080490611ee1565b60405180910390fd5b6000600254905060008060009054906101000a900473ffffffffffffffffffffffffffffffffffffffff1673ffffffffffffffffffffffffffffffffffffffff168260405161085b90611f32565b60006040518083038185875af1925050503d8060008114610898576040519150601f19603f3d011682016040523d82523d6000602084013e61089d565b606091505b50509050806108e1576040517f08c379a00000000000000000000000000000000000000000000000000000000081526004016108d890611f93565b60405180910390fd5b600060028190555060008054906101000a900473ffffffffffffffffffffffffffffffffffffffff1673ffffffffffffffffffffffffffffffffffffffff167f884edad9ce6fa2440d8a54cc123490eb96d2768479d49ff9c7366125a94243648360405161094f9190611b8f565b60405180910390a25050565b60008060009054906101000a900473ffffffffffffffffffffffffffffffffffffffff1673ffffffffffffffffffffffffffffffffffffffff163373ffffffffffffffffffffffffffffffffffffffff16146109ec576040517f08c379a00000000000000000000000000000000000000000000000000000000081526004016109e390611ee1565b60405180910390fd5b60008054906101000a900473ffffffffffffffffffffffffffffffffffffffff1673ffffffffffffffffffffffffffffffffffffffff1631905090565b60008060009054906101000a900473ffffffffffffffffffffffffffffffffffffffff1673ffffffffffffffffffffffffffffffffffffffff163373ffffffffffffffffffffffffffffffffffffffff1614610aba576040517f08c379a0000000000000000000000000000000000000000000000000000000008152600401610ab190611ee1565b60405180910390fd5b47905090565b60015481565b81600073ffffffffffffffffffffffffffffffffffffffff16600460008361ffff1661ffff16815260200190815260200160002060020160009054906101000a900473ffffffffffffffffffffffffffffffffffffffff1673ffffffffffffffffffffffffffffffffffffffff1603610b74576040517f08c379a0000000000000000000000000000000000000000000000000000000008152600401610b6b90611e4f565b60405180910390fd5b60008054906101000a900473ffffffffffffffffffffffffffffffffffffffff1673ffffffffffffffffffffffffffffffffffffffff163373ffffffffffffffffffffffffffffffffffffffff1614610c02576040517f08c379a0000000000000000000000000000000000000000000000000000000008152600401610bf990611ee1565b60405180910390fd5b6001151582151503610cd157600460008461ffff1661ffff16815260200190815260200160002060020160009054906101000a900473ffffffffffffffffffffffffffffffffffffffff1673ffffffffffffffffffffffffffffffffffffffff167f4d4df813727c96a4d9463bf3c4d6a55a394a64ba712b1f506909d2bf4a9146f884604051610c929190611d18565b60405180910390a281600460008561ffff1661ffff16815260200190815260200160002060020160146101000a81548160ff0219169083151502179055505b505050565b60008060009054906101000a900473ffffffffffffffffffffffffffffffffffffffff1673ffffffffffffffffffffffffffffffffffffffff163373ffffffffffffffffffffffffffffffffffffffff1614610d67576040517f08c379a0000000000000000000000000000000000000000000000000000000008152600401610d5e90611ee1565b60405180910390fd5b600254905090565b60008060009054906101000a900473ffffffffffffffffffffffffffffffffffffffff16905090565b60008060009054906101000a900473ffffffffffffffffffffffffffffffffffffffff1673ffffffffffffffffffffffffffffffffffffffff163373ffffffffffffffffffffffffffffffffffffffff1614610e29576040517f08c379a0000000000000000000000000000000000000000000000000000000008152600401610e2090611ee1565b60405180910390fd5b600154905090565b803373ffffffffffffffffffffffffffffffffffffffff16600460008361ffff1661ffff16815260200190815260200160002060020160009054906101000a900473ffffffffffffffffffffffffffffffffffffffff1673ffffffffffffffffffffffffffffffffffffffff1614610ede576040517f08c379a0000000000000000000000000000000000000000000000000000000008152600401610ed590611fff565b60405180910390fd5b60011515600360008461ffff1661ffff16815260200190815260200160002060020160009054906101000a900460ff16151514610f50576040517f08c379a0000000000000000000000000000000000000000000000000000000008152600401610f479061206b565b60405180910390fd5b6001600460008461ffff1661ffff16815260200190815260200160002060020160156101000a81548160ff021916908315150217905550600460008361ffff1661ffff1681526020019081526020016000206001015460016000828254610fb791906120ba565b92505081905550600460008361ffff1661ffff1681526020019081526020016000206001015460026000828254610fee91906120ee565b92505081905550600460008361ffff1661ffff168152602001908152602001600020600101543373ffffffffffffffffffffffffffffffffffffffff167f9e7f3ac9856a954ae44f45fa55acf9e7fa0148c4b1190e209130b7f17e55d0058460405161105a9190611d18565b60405180910390a35050565b60008054906101000a900473ffffffffffffffffffffffffffffffffffffffff1673ffffffffffffffffffffffffffffffffffffffff163373ffffffffffffffffffffffffffffffffffffffff16036110f4576040517f08c379a00000000000000000000000000000000000000000000000000000000081526004016110eb90612194565b60405180910390fd5b816000600360008361ffff1661ffff1681526020019081526020016000206001015411611156576040517f08c379a000000000000000000000000000000000000000000000000000000000815260040161114d90611de3565b60405180910390fd5b8260001515600360008361ffff1661ffff16815260200190815260200160002060020160009054906101000a900460ff161515146111c9576040517f08c379a00000000000000000000000000000000000000000000000000000000081526004016111c090612200565b60405180910390fd5b826000811161120d576040517f08c379a00000000000000000000000000000000000000000000000000000000081526004016112049061226c565b60405180910390fd5b6000601681819054906101000a900461ffff168092919061122d9061228c565b91906101000a81548161ffff021916908361ffff160217905550506040518060a001604052808661ffff1681526020018581526020013373ffffffffffffffffffffffffffffffffffffffff16815260200160001515815260200160001515815250600460008060169054906101000a900461ffff1661ffff1661ffff16815260200190815260200160002060008201518160000160006101000a81548161ffff021916908361ffff1602179055506020820151816001015560408201518160020160006101000a81548173ffffffffffffffffffffffffffffffffffffffff021916908373ffffffffffffffffffffffffffffffffffffffff16021790555060608201518160020160146101000a81548160ff02191690831515021790555060808201518160020160156101000a81548160ff021916908315150217905550905050600360008661ffff1661ffff168152602001908152602001600020600301600081548092919061139f906122b6565b9190505550838561ffff163373ffffffffffffffffffffffffffffffffffffffff167fa9d9407c68bf591879198d57118587b1e56ce4baad986fcb6c92d745c354e8c060405160405180910390a45050505050565b60008054906101000a900473ffffffffffffffffffffffffffffffffffffffff1673ffffffffffffffffffffffffffffffffffffffff163373ffffffffffffffffffffffffffffffffffffffff1614611482576040517f08c379a000000000000000000000000000000000000000000000000000000000815260040161147990611ee1565b60405180910390fd5b80600081116114c6576040517f08c379a00000000000000000000000000000000000000000000000000000000081526004016114bd9061226c565b60405180910390fd5b6000601481819054906101000a900461ffff16809291906114e69061228c565b91906101000a81548161ffff021916908361ffff1602179055505060405180608001604052808481526020018381526020016000151581526020016000815250600360008060149054906101000a900461ffff1661ffff1661ffff168152602001908152602001600020600082015181600001556020820151816001015560408201518160020160006101000a81548160ff02191690831515021790555060608201518160030155905050600060149054906101000a900461ffff1661ffff163373ffffffffffffffffffffffffffffffffffffffff167f31cf60878d1437dd30f9aaac2b138e96954a45219c79d31be796d6a2e223ab9060405160405180910390a3505050565b565b600060169054906101000a900461ffff1681565b80600073ffffffffffffffffffffffffffffffffffffffff16600460008361ffff1661ffff16815260200190815260200160002060020160009054906101000a900473ffffffffffffffffffffffffffffffffffffffff1673ffffffffffffffffffffffffffffffffffffffff16036116b2576040517f08c379a00000000000000000000000000000000000000000000000000000000081526004016116a990611e4f565b60405180910390fd5b813373ffffffffffffffffffffffffffffffffffffffff16600460008361ffff1661ffff16815260200190815260200160002060020160009054906101000a900473ffffffffffffffffffffffffffffffffffffffff1673ffffffffffffffffffffffffffffffffffffffff161461175f576040517f08c379a000000000000000000000000000000000000000000000000000000000815260040161175690611fff565b60405180910390fd5b8260011515600460008361ffff1661ffff16815260200190815260200160002060020160149054906101000a900460ff161515146117d2576040517f08c379a00000000000000000000000000000000000000000000000000000000081526004016117c990612370565b60405180910390fd5b6000600460008661ffff1661ffff16815260200190815260200160002060000160009054906101000a900461ffff16905060001515600360008361ffff1661ffff16815260200190815260200160002060020160009054906101000a900460ff16151514611875576040517f08c379a000000000000000000000000000000000000000000000000000000000815260040161186c90612200565b60405180910390fd5b34600460008761ffff1661ffff16815260200190815260200160002060010154146118d5576040517f08c379a00000000000000000000000000000000000000000000000000000000081526004016118cc90612402565b60405180910390fd5b6118dd6115ee565b34600160008282546118ef91906120ee565b925050819055506001600360008361ffff1661ffff16815260200190815260200160002060020160006101000a81548160ff0219169083151502179055505050505050565b60046020528060005260406000206000915090508060000160009054906101000a900461ffff16908060010154908060020160009054906101000a900473ffffffffffffffffffffffffffffffffffffffff16908060020160149054906101000a900460ff16908060020160159054906101000a900460ff16905085565b600060149054906101000a900461ffff1681565b600080fd5b600061ffff82169050919050565b6119e2816119cb565b81146119ed57600080fd5b50565b6000813590506119ff816119d9565b92915050565b600060208284031215611a1b57611a1a6119c6565b5b6000611a29848285016119f0565b91505092915050565b6000819050919050565b611a4581611a32565b82525050565b6000819050919050565b611a5e81611a4b565b82525050565b60008115159050919050565b611a7981611a64565b82525050565b6000608082019050611a946000830187611a3c565b611aa16020830186611a55565b611aae6040830185611a70565b611abb6060830184611a55565b95945050505050565b6000606082019050611ad96000830186611a3c565b611ae66020830185611a55565b611af36040830184611a70565b949350505050565b600073ffffffffffffffffffffffffffffffffffffffff82169050919050565b6000611b2682611afb565b9050919050565b611b3681611b1b565b82525050565b600060a082019050611b516000830188611a55565b611b5e6020830187611a55565b611b6b6040830186611b2d565b611b786060830185611a70565b611b856080830184611a70565b9695505050505050565b6000602082019050611ba46000830184611a55565b92915050565b611bb381611a64565b8114611bbe57600080fd5b50565b600081359050611bd081611baa565b92915050565b60008060408385031215611bed57611bec6119c6565b5b6000611bfb858286016119f0565b9250506020611c0c85828601611bc1565b9150509250929050565b6000602082019050611c2b6000830184611b2d565b92915050565b611c3a81611a4b565b8114611c4557600080fd5b50565b600081359050611c5781611c31565b92915050565b60008060408385031215611c7457611c736119c6565b5b6000611c82858286016119f0565b9250506020611c9385828601611c48565b9150509250929050565b611ca681611a32565b8114611cb157600080fd5b50565b600081359050611cc381611c9d565b92915050565b60008060408385031215611ce057611cdf6119c6565b5b6000611cee85828601611cb4565b9250506020611cff85828601611c48565b9150509250929050565b611d12816119cb565b82525050565b6000602082019050611d2d6000830184611d09565b92915050565b600060a082019050611d486000830188611d09565b611d556020830187611a55565b611d626040830186611b2d565b611d6f6060830185611a70565b611d7c6080830184611a70565b9695505050505050565b600082825260208201905092915050565b7f546869732073616c6520646f6573206e6f742065786973740000000000000000600082015250565b6000611dcd601883611d86565b9150611dd882611d97565b602082019050919050565b60006020820190508181036000830152611dfc81611dc0565b9050919050565b7f54686973206f6666657220646f6573206e6f7420657869737400000000000000600082015250565b6000611e39601983611d86565b9150611e4482611e03565b602082019050919050565b60006020820190508181036000830152611e6881611e2c565b9050919050565b7f4f776e6572206f6e6c792063616e2072756e2074686973207472616e7361637460008201527f696f6e0000000000000000000000000000000000000000000000000000000000602082015250565b6000611ecb602383611d86565b9150611ed682611e6f565b604082019050919050565b60006020820190508181036000830152611efa81611ebe565b9050919050565b600081905092915050565b50565b6000611f1c600083611f01565b9150611f2782611f0c565b600082019050919050565b6000611f3d82611f0f565b9150819050919050565b7f4661696c656420746f2073656e64204574686572000000000000000000000000600082015250565b6000611f7d601483611d86565b9150611f8882611f47565b602082019050919050565b60006020820190508181036000830152611fac81611f70565b9050919050565b7f596f7520617265206e6f74207468652062757965720000000000000000000000600082015250565b6000611fe9601583611d86565b9150611ff482611fb3565b602082019050919050565b6000602082019050818103600083015261201881611fdc565b9050919050565b7f54686973206974656d206973206973206e6f7420736f6c640000000000000000600082015250565b6000612055601883611d86565b91506120608261201f565b602082019050919050565b6000602082019050818103600083015261208481612048565b9050919050565b7f4e487b7100000000000000000000000000000000000000000000000000000000600052601160045260246000fd5b60006120c582611a4b565b91506120d083611a4b565b92508282039050818111156120e8576120e761208b565b5b92915050565b60006120f982611a4b565b915061210483611a4b565b925082820190508082111561211c5761211b61208b565b5b92915050565b7f596f752063616e206e6f7420637265617465206f6666657220617320796f752060008201527f61726520746865206f776e657200000000000000000000000000000000000000602082015250565b600061217e602d83611d86565b915061218982612122565b604082019050919050565b600060208201905081810360008301526121ad81612171565b9050919050565b7f54686973206974656d20697320616c726561647920736f6c6400000000000000600082015250565b60006121ea601983611d86565b91506121f5826121b4565b602082019050919050565b60006020820190508181036000830152612219816121dd565b9050919050565b7f50726963652063616e206e6f7420626520300000000000000000000000000000600082015250565b6000612256601283611d86565b915061226182612220565b602082019050919050565b6000602082019050818103600083015261228581612249565b9050919050565b6000612297826119cb565b915061ffff82036122ab576122aa61208b565b5b600182019050919050565b60006122c182611a4b565b91507fffffffffffffffffffffffffffffffffffffffffffffffffffffffffffffffff82036122f3576122f261208b565b5b600182019050919050565b7f546865206f776e657220646964206e6f742061636365707420796f7572206f6660008201527f6665722079657400000000000000000000000000000000000000000000000000602082015250565b600061235a602783611d86565b9150612365826122fe565b604082019050919050565b600060208201905081810360008301526123898161234d565b9050919050565b7f546865207072696365206973206e6f7420657175616c20746f2074686520766160008201527f6c756520796f752073656e740000000000000000000000000000000000000000602082015250565b60006123ec602c83611d86565b91506123f782612390565b604082019050919050565b6000602082019050818103600083015261241b816123df565b905091905056fea2646970667358221220490a31338fbdbc39f900528332188b66cfe67519292218cad7a105774bb0657964736f6c63430008120033",
  "linkReferences": {},
  "deployedLinkReferences": {}
}